{
  "_format": "hh-sol-artifact-1",
  "contractName": "LunaFund",
  "sourceName": "contracts/LunaFund.sol",
  "abi": [
    {
      "inputs": [
        {
          "internalType": "uint256",
          "name": "_missionId",
          "type": "uint256"
        },
        {
          "internalType": "uint256",
          "name": "_requestIndex",
          "type": "uint256"
        }
      ],
      "name": "approveRequest",
      "outputs": [],
      "stateMutability": "nonpayable",
      "type": "function"
    },
    {
      "inputs": [
        {
          "internalType": "uint256",
          "name": "_missionId",
          "type": "uint256"
        }
      ],
      "name": "contribute",
      "outputs": [],
      "stateMutability": "payable",
      "type": "function"
    },
    {
      "inputs": [
        {
          "internalType": "string",
          "name": "_title",
          "type": "string"
        },
        {
          "internalType": "string",
          "name": "_description",
          "type": "string"
        },
        {
          "internalType": "uint256",
          "name": "_targetAmount",
          "type": "uint256"
        }
      ],
      "name": "createMission",
      "outputs": [],
      "stateMutability": "nonpayable",
      "type": "function"
    },
    {
      "inputs": [
        {
          "internalType": "uint256",
          "name": "_missionId",
          "type": "uint256"
        },
        {
          "internalType": "string",
          "name": "_description",
          "type": "string"
        },
        {
          "internalType": "uint256",
          "name": "_amount",
          "type": "uint256"
        },
        {
          "internalType": "address payable",
          "name": "_recipient",
          "type": "address"
        }
      ],
      "name": "createRequest",
      "outputs": [],
      "stateMutability": "nonpayable",
      "type": "function"
    },
    {
      "inputs": [
        {
          "internalType": "uint256",
          "name": "_missionId",
          "type": "uint256"
        },
        {
          "internalType": "uint256",
          "name": "_requestIndex",
          "type": "uint256"
        }
      ],
      "name": "finalizeRequest",
      "outputs": [],
      "stateMutability": "nonpayable",
      "type": "function"
    },
    {
      "inputs": [
        {
          "internalType": "uint256",
          "name": "_missionId",
          "type": "uint256"
        }
      ],
      "name": "getContributions",
      "outputs": [
        {
          "internalType": "address[]",
          "name": "",
          "type": "address[]"
        },
        {
          "internalType": "uint256[]",
          "name": "",
          "type": "uint256[]"
        }
      ],
      "stateMutability": "view",
      "type": "function"
    },
    {
      "inputs": [
        {
          "internalType": "uint256",
          "name": "_missionId",
          "type": "uint256"
        }
      ],
      "name": "getContributors",
      "outputs": [
        {
          "internalType": "address[]",
          "name": "",
          "type": "address[]"
        }
      ],
      "stateMutability": "view",
      "type": "function"
    },
    {
      "inputs": [
        {
          "internalType": "uint256",
          "name": "_missionId",
          "type": "uint256"
        }
      ],
      "name": "getMission",
      "outputs": [
        {
          "internalType": "address",
          "name": "creator",
          "type": "address"
        },
        {
          "internalType": "string",
          "name": "title",
          "type": "string"
        },
        {
          "internalType": "string",
          "name": "description",
          "type": "string"
        },
        {
          "internalType": "uint256",
          "name": "targetAmount",
          "type": "uint256"
        },
        {
          "internalType": "uint256",
          "name": "totalRaised",
          "type": "uint256"
        },
        {
          "internalType": "bool",
          "name": "completed",
          "type": "bool"
        },
        {
          "internalType": "uint256",
          "name": "pId",
          "type": "uint256"
        }
      ],
      "stateMutability": "view",
      "type": "function"
    },
    {
      "inputs": [],
      "name": "getMissions",
      "outputs": [
        {
          "internalType": "address[]",
          "name": "creators",
          "type": "address[]"
        },
        {
          "internalType": "string[]",
          "name": "titles",
          "type": "string[]"
        },
        {
          "internalType": "string[]",
          "name": "descriptions",
          "type": "string[]"
        },
        {
          "internalType": "uint256[]",
          "name": "targetAmounts",
          "type": "uint256[]"
        },
        {
          "internalType": "uint256[]",
          "name": "totalRaisedAmounts",
          "type": "uint256[]"
        },
        {
          "internalType": "bool[]",
          "name": "completions",
          "type": "bool[]"
        }
      ],
      "stateMutability": "view",
      "type": "function"
    },
    {
      "inputs": [
        {
          "internalType": "uint256",
          "name": "_missionId",
          "type": "uint256"
        }
      ],
      "name": "getRequestsCount",
      "outputs": [
        {
          "internalType": "uint256",
          "name": "",
          "type": "uint256"
        }
      ],
      "stateMutability": "view",
      "type": "function"
    },
    {
      "inputs": [],
      "name": "missionCount",
      "outputs": [
        {
          "internalType": "uint256",
          "name": "",
          "type": "uint256"
        }
      ],
      "stateMutability": "view",
      "type": "function"
    },
    {
      "inputs": [
        {
          "internalType": "uint256",
          "name": "",
          "type": "uint256"
        }
      ],
      "name": "missions",
      "outputs": [
        {
          "internalType": "address",
          "name": "creator",
          "type": "address"
        },
        {
          "internalType": "string",
          "name": "title",
          "type": "string"
        },
        {
          "internalType": "string",
          "name": "description",
          "type": "string"
        },
        {
          "internalType": "uint256",
          "name": "targetAmount",
          "type": "uint256"
        },
        {
          "internalType": "uint256",
          "name": "totalRaised",
          "type": "uint256"
        },
        {
          "internalType": "bool",
          "name": "completed",
          "type": "bool"
        }
      ],
      "stateMutability": "view",
      "type": "function"
    }
  ],
  "bytecode": "0x608060405234801561001057600080fd5b506125e9806100206000396000f3fe6080604052600436106100a75760003560e01c8063c1cbbca711610064578063c1cbbca7146101e3578063c8b9dd67146101ff578063d05e3cc514610228578063dfc19e7414610266578063eb2b94b514610296578063ff9c08fa146102d9576100a7565b80632c0a90a9146100ac5780632c8fe526146100d55780633c1ab00f1461011757806354ffc90c146101545780637374a1bf1461017d5780639a5e5b77146101a6575b600080fd5b3480156100b857600080fd5b506100d360048036038101906100ce91906116ac565b610304565b005b3480156100e157600080fd5b506100fc60048036038101906100f791906116ec565b610512565b60405161010e9695949392919061181d565b60405180910390f35b34801561012357600080fd5b5061013e600480360381019061013991906116ec565b61068b565b60405161014b919061194a565b60405180910390f35b34801561016057600080fd5b5061017b60048036038101906101769190611aa1565b61072f565b005b34801561018957600080fd5b506101a4600480360381019061019f9190611b6a565b6107fc565b005b3480156101b257600080fd5b506101cd60048036038101906101c891906116ec565b610a33565b6040516101da9190611bed565b60405180910390f35b6101fd60048036038101906101f891906116ec565b610a56565b005b34801561020b57600080fd5b50610226600480360381019061022191906116ac565b610c56565b005b34801561023457600080fd5b5061024f600480360381019061024a91906116ec565b610dcf565b60405161025d929190611cc6565b60405180910390f35b34801561027257600080fd5b5061027b610fb2565b60405161028d96959493929190611ec7565b60405180910390f35b3480156102a257600080fd5b506102bd60048036038101906102b891906116ec565b61141b565b6040516102d09796959493929190611f52565b60405180910390f35b3480156102e557600080fd5b506102ee6115b9565b6040516102fb9190611bed565b60405180910390f35b6000600160008481526020019081526020016000209050600081600801838154811061033357610332611fcf565b5b9060005260206000209060060201905060008260060160003373ffffffffffffffffffffffffffffffffffffffff1673ffffffffffffffffffffffffffffffffffffffff16815260200190815260200160002054116103c7576040517f08c379a00000000000000000000000000000000000000000000000000000000081526004016103be9061204a565b60405180910390fd5b8060050160003373ffffffffffffffffffffffffffffffffffffffff1673ffffffffffffffffffffffffffffffffffffffff16815260200190815260200160002060009054906101000a900460ff1615610456576040517f08c379a000000000000000000000000000000000000000000000000000000000815260040161044d906120b6565b60405180910390fd5b60018160050160003373ffffffffffffffffffffffffffffffffffffffff1673ffffffffffffffffffffffffffffffffffffffff16815260200190815260200160002060006101000a81548160ff0219169083151502179055508160060160003373ffffffffffffffffffffffffffffffffffffffff1673ffffffffffffffffffffffffffffffffffffffff168152602001908152602001600020548160030160008282546105059190612105565b9250508190555050505050565b60016020528060005260406000206000915090508060000160009054906101000a900473ffffffffffffffffffffffffffffffffffffffff169080600101805461055b9061218a565b80601f01602080910402602001604051908101604052809291908181526020018280546105879061218a565b80156105d45780601f106105a9576101008083540402835291602001916105d4565b820191906000526020600020905b8154815290600101906020018083116105b757829003601f168201915b5050505050908060020180546105e99061218a565b80601f01602080910402602001604051908101604052809291908181526020018280546106159061218a565b80156106625780601f1061063757610100808354040283529160200191610662565b820191906000526020600020905b81548152906001019060200180831161064557829003601f168201915b5050505050908060030154908060040154908060050160009054906101000a900460ff16905086565b60606001600083815260200190815260200160002060070180548060200260200160405190810160405280929190818152602001828054801561072357602002820191906000526020600020905b8160009054906101000a900473ffffffffffffffffffffffffffffffffffffffff1673ffffffffffffffffffffffffffffffffffffffff16815260200190600101908083116106d9575b50505050509050919050565b600060016000806000815480929190610747906121bc565b9190505581526020019081526020016000209050338160000160006101000a81548173ffffffffffffffffffffffffffffffffffffffff021916908373ffffffffffffffffffffffffffffffffffffffff160217905550838160010190805190602001906107b69291906115bf565b50828160020190805190602001906107cf9291906115bf565b5081816003018190555060008160050160006101000a81548160ff02191690831515021790555050505050565b60006001600086815260200190815260200160002090508060000160009054906101000a900473ffffffffffffffffffffffffffffffffffffffff1673ffffffffffffffffffffffffffffffffffffffff163373ffffffffffffffffffffffffffffffffffffffff16146108a5576040517f08c379a000000000000000000000000000000000000000000000000000000000815260040161089c90612277565b60405180910390fd5b8060050160009054906101000a900460ff16156108f7576040517f08c379a00000000000000000000000000000000000000000000000000000000081526004016108ee906122e3565b60405180910390fd5b806004015483111561093e576040517f08c379a00000000000000000000000000000000000000000000000000000000081526004016109359061234f565b60405180910390fd5b8060080160018160018154018082558091505003906000526020600020905050600060018260080180549050610974919061236f565b9050600082600801828154811061098e5761098d611fcf565b5b90600052602060002090600602019050858160000190805190602001906109b69291906115bf565b50848160010181905550838160020160006101000a81548173ffffffffffffffffffffffffffffffffffffffff021916908373ffffffffffffffffffffffffffffffffffffffff16021790555060008160040160006101000a81548160ff0219169083151502179055506000816003018190555050505050505050565b600060016000838152602001908152602001600020600801805490509050919050565b60003411610a99576040517f08c379a0000000000000000000000000000000000000000000000000000000008152600401610a90906123ef565b60405180910390fd5b60006001600083815260200190815260200160002090508060050160009054906101000a900460ff1615610b02576040517f08c379a0000000000000000000000000000000000000000000000000000000008152600401610af99061245b565b60405180910390fd5b60008160060160003373ffffffffffffffffffffffffffffffffffffffff1673ffffffffffffffffffffffffffffffffffffffff168152602001908152602001600020541415610bb25780600701339080600181540180825580915050600190039060005260206000200160009091909190916101000a81548173ffffffffffffffffffffffffffffffffffffffff021916908373ffffffffffffffffffffffffffffffffffffffff1602179055505b348160060160003373ffffffffffffffffffffffffffffffffffffffff1673ffffffffffffffffffffffffffffffffffffffff1681526020019081526020016000206000828254610c039190612105565b9250508190555034816004016000828254610c1e9190612105565b925050819055508060030154816004015410610c525760018160050160006101000a81548160ff0219169083151502179055505b5050565b60006001600084815260200190815260200160002090506000816008018381548110610c8557610c84611fcf565b5b906000526020600020906006020190508060040160009054906101000a900460ff1615610ce7576040517f08c379a0000000000000000000000000000000000000000000000000000000008152600401610cde906124c7565b60405180910390fd5b60028260040154610cf89190612516565b816003015411610d3d576040517f08c379a0000000000000000000000000000000000000000000000000000000008152600401610d3490612593565b60405180910390fd5b8060020160009054906101000a900473ffffffffffffffffffffffffffffffffffffffff1673ffffffffffffffffffffffffffffffffffffffff166108fc82600101549081150290604051600060405180830381858888f19350505050158015610dab573d6000803e3d6000fd5b5060018160040160006101000a81548160ff02191690831515021790555050505050565b606080600060016000858152602001908152602001600020905060008160070180549050905060008167ffffffffffffffff811115610e1157610e10611976565b5b604051908082528060200260200182016040528015610e3f5781602001602082028036833780820191505090505b50905060008267ffffffffffffffff811115610e5e57610e5d611976565b5b604051908082528060200260200182016040528015610e8c5781602001602082028036833780820191505090505b50905060005b83811015610fa2576000856007018281548110610eb257610eb1611fcf565b5b9060005260206000200160009054906101000a900473ffffffffffffffffffffffffffffffffffffffff16905080848381518110610ef357610ef2611fcf565b5b602002602001019073ffffffffffffffffffffffffffffffffffffffff16908173ffffffffffffffffffffffffffffffffffffffff16815250508560060160008273ffffffffffffffffffffffffffffffffffffffff1673ffffffffffffffffffffffffffffffffffffffff16815260200190815260200160002054838381518110610f8257610f81611fcf565b5b602002602001018181525050508080610f9a906121bc565b915050610e92565b5081819550955050505050915091565b60608060608060608060005467ffffffffffffffff811115610fd757610fd6611976565b5b6040519080825280602002602001820160405280156110055781602001602082028036833780820191505090505b50955060005467ffffffffffffffff81111561102457611023611976565b5b60405190808252806020026020018201604052801561105757816020015b60608152602001906001900390816110425790505b50945060005467ffffffffffffffff81111561107657611075611976565b5b6040519080825280602002602001820160405280156110a957816020015b60608152602001906001900390816110945790505b50935060005467ffffffffffffffff8111156110c8576110c7611976565b5b6040519080825280602002602001820160405280156110f65781602001602082028036833780820191505090505b50925060005467ffffffffffffffff81111561111557611114611976565b5b6040519080825280602002602001820160405280156111435781602001602082028036833780820191505090505b50915060005467ffffffffffffffff81111561116257611161611976565b5b6040519080825280602002602001820160405280156111905781602001602082028036833780820191505090505b50905060005b6000548110156114125760006001600083815260200190815260200160002090508060000160009054906101000a900473ffffffffffffffffffffffffffffffffffffffff168883815181106111ef576111ee611fcf565b5b602002602001019073ffffffffffffffffffffffffffffffffffffffff16908173ffffffffffffffffffffffffffffffffffffffff16815250508060010180546112389061218a565b80601f01602080910402602001604051908101604052809291908181526020018280546112649061218a565b80156112b15780601f10611286576101008083540402835291602001916112b1565b820191906000526020600020905b81548152906001019060200180831161129457829003601f168201915b50505050508783815181106112c9576112c8611fcf565b5b60200260200101819052508060020180546112e39061218a565b80601f016020809104026020016040519081016040528092919081815260200182805461130f9061218a565b801561135c5780601f106113315761010080835404028352916020019161135c565b820191906000526020600020905b81548152906001019060200180831161133f57829003601f168201915b505050505086838151811061137457611373611fcf565b5b6020026020010181905250806003015485838151811061139757611396611fcf565b5b60200260200101818152505080600401548483815181106113bb576113ba611fcf565b5b6020026020010181815250508060050160009054906101000a900460ff168383815181106113ec576113eb611fcf565b5b60200260200101901515908115158152505050808061140a906121bc565b915050611196565b50909192939495565b60006060806000806000806000600160008a815260200190815260200160002090508060000160009054906101000a900473ffffffffffffffffffffffffffffffffffffffff168160010182600201836003015484600401548560050160009054906101000a900460ff168e8580546114939061218a565b80601f01602080910402602001604051908101604052809291908181526020018280546114bf9061218a565b801561150c5780601f106114e15761010080835404028352916020019161150c565b820191906000526020600020905b8154815290600101906020018083116114ef57829003601f168201915b5050505050955084805461151f9061218a565b80601f016020809104026020016040519081016040528092919081815260200182805461154b9061218a565b80156115985780601f1061156d57610100808354040283529160200191611598565b820191906000526020600020905b81548152906001019060200180831161157b57829003601f168201915b50505050509450975097509750975097509750975050919395979092949650565b60005481565b8280546115cb9061218a565b90600052602060002090601f0160209004810192826115ed5760008555611634565b82601f1061160657805160ff1916838001178555611634565b82800160010185558215611634579182015b82811115611633578251825591602001919060010190611618565b5b5090506116419190611645565b5090565b5b8082111561165e576000816000905550600101611646565b5090565b6000604051905090565b600080fd5b600080fd5b6000819050919050565b61168981611676565b811461169457600080fd5b50565b6000813590506116a681611680565b92915050565b600080604083850312156116c3576116c261166c565b5b60006116d185828601611697565b92505060206116e285828601611697565b9150509250929050565b6000602082840312156117025761170161166c565b5b600061171084828501611697565b91505092915050565b600073ffffffffffffffffffffffffffffffffffffffff82169050919050565b600061174482611719565b9050919050565b61175481611739565b82525050565b600081519050919050565b600082825260208201905092915050565b60005b83811015611794578082015181840152602081019050611779565b838111156117a3576000848401525b50505050565b6000601f19601f8301169050919050565b60006117c58261175a565b6117cf8185611765565b93506117df818560208601611776565b6117e8816117a9565b840191505092915050565b6117fc81611676565b82525050565b60008115159050919050565b61181781611802565b82525050565b600060c082019050611832600083018961174b565b818103602083015261184481886117ba565b9050818103604083015261185881876117ba565b905061186760608301866117f3565b61187460808301856117f3565b61188160a083018461180e565b979650505050505050565b600081519050919050565b600082825260208201905092915050565b6000819050602082019050919050565b6118c181611739565b82525050565b60006118d383836118b8565b60208301905092915050565b6000602082019050919050565b60006118f78261188c565b6119018185611897565b935061190c836118a8565b8060005b8381101561193d57815161192488826118c7565b975061192f836118df565b925050600181019050611910565b5085935050505092915050565b6000602082019050818103600083015261196481846118ec565b905092915050565b600080fd5b600080fd5b7f4e487b7100000000000000000000000000000000000000000000000000000000600052604160045260246000fd5b6119ae826117a9565b810181811067ffffffffffffffff821117156119cd576119cc611976565b5b80604052505050565b60006119e0611662565b90506119ec82826119a5565b919050565b600067ffffffffffffffff821115611a0c57611a0b611976565b5b611a15826117a9565b9050602081019050919050565b82818337600083830152505050565b6000611a44611a3f846119f1565b6119d6565b905082815260208101848484011115611a6057611a5f611971565b5b611a6b848285611a22565b509392505050565b600082601f830112611a8857611a8761196c565b5b8135611a98848260208601611a31565b91505092915050565b600080600060608486031215611aba57611ab961166c565b5b600084013567ffffffffffffffff811115611ad857611ad7611671565b5b611ae486828701611a73565b935050602084013567ffffffffffffffff811115611b0557611b04611671565b5b611b1186828701611a73565b9250506040611b2286828701611697565b9150509250925092565b6000611b3782611719565b9050919050565b611b4781611b2c565b8114611b5257600080fd5b50565b600081359050611b6481611b3e565b92915050565b60008060008060808587031215611b8457611b8361166c565b5b6000611b9287828801611697565b945050602085013567ffffffffffffffff811115611bb357611bb2611671565b5b611bbf87828801611a73565b9350506040611bd087828801611697565b9250506060611be187828801611b55565b91505092959194509250565b6000602082019050611c0260008301846117f3565b92915050565b600081519050919050565b600082825260208201905092915050565b6000819050602082019050919050565b611c3d81611676565b82525050565b6000611c4f8383611c34565b60208301905092915050565b6000602082019050919050565b6000611c7382611c08565b611c7d8185611c13565b9350611c8883611c24565b8060005b83811015611cb9578151611ca08882611c43565b9750611cab83611c5b565b925050600181019050611c8c565b5085935050505092915050565b60006040820190508181036000830152611ce081856118ec565b90508181036020830152611cf48184611c68565b90509392505050565b600081519050919050565b600082825260208201905092915050565b6000819050602082019050919050565b600082825260208201905092915050565b6000611d458261175a565b611d4f8185611d29565b9350611d5f818560208601611776565b611d68816117a9565b840191505092915050565b6000611d7f8383611d3a565b905092915050565b6000602082019050919050565b6000611d9f82611cfd565b611da98185611d08565b935083602082028501611dbb85611d19565b8060005b85811015611df75784840389528151611dd88582611d73565b9450611de383611d87565b925060208a01995050600181019050611dbf565b50829750879550505050505092915050565b600081519050919050565b600082825260208201905092915050565b6000819050602082019050919050565b611e3e81611802565b82525050565b6000611e508383611e35565b60208301905092915050565b6000602082019050919050565b6000611e7482611e09565b611e7e8185611e14565b9350611e8983611e25565b8060005b83811015611eba578151611ea18882611e44565b9750611eac83611e5c565b925050600181019050611e8d565b5085935050505092915050565b600060c0820190508181036000830152611ee181896118ec565b90508181036020830152611ef58188611d94565b90508181036040830152611f098187611d94565b90508181036060830152611f1d8186611c68565b90508181036080830152611f318185611c68565b905081810360a0830152611f458184611e69565b9050979650505050505050565b600060e082019050611f67600083018a61174b565b8181036020830152611f7981896117ba565b90508181036040830152611f8d81886117ba565b9050611f9c60608301876117f3565b611fa960808301866117f3565b611fb660a083018561180e565b611fc360c08301846117f3565b98975050505050505050565b7f4e487b7100000000000000000000000000000000000000000000000000000000600052603260045260246000fd5b7f4f6e6c7920636f6e7472696275746f72732063616e20766f7465000000000000600082015250565b6000612034601a83611765565b915061203f82611ffe565b602082019050919050565b6000602082019050818103600083015261206381612027565b9050919050565b7f416c726561647920766f74656400000000000000000000000000000000000000600082015250565b60006120a0600d83611765565b91506120ab8261206a565b602082019050919050565b600060208201905081810360008301526120cf81612093565b9050919050565b7f4e487b7100000000000000000000000000000000000000000000000000000000600052601160045260246000fd5b600061211082611676565b915061211b83611676565b9250827fffffffffffffffffffffffffffffffffffffffffffffffffffffffffffffffff038211156121505761214f6120d6565b5b828201905092915050565b7f4e487b7100000000000000000000000000000000000000000000000000000000600052602260045260246000fd5b600060028204905060018216806121a257607f821691505b602082108114156121b6576121b561215b565b5b50919050565b60006121c782611676565b91507fffffffffffffffffffffffffffffffffffffffffffffffffffffffffffffffff8214156121fa576121f96120d6565b5b600182019050919050565b7f4f6e6c79206d697373696f6e2063726561746f722063616e206372656174652060008201527f7265717565737400000000000000000000000000000000000000000000000000602082015250565b6000612261602783611765565b915061226c82612205565b604082019050919050565b6000602082019050818103600083015261229081612254565b9050919050565b7f4d697373696f6e2068617320656e646564000000000000000000000000000000600082015250565b60006122cd601183611765565b91506122d882612297565b602082019050919050565b600060208201905081810360008301526122fc816122c0565b9050919050565b7f416d6f756e7420657863656564732066756e6473000000000000000000000000600082015250565b6000612339601483611765565b915061234482612303565b602082019050919050565b600060208201905081810360008301526123688161232c565b9050919050565b600061237a82611676565b915061238583611676565b925082821015612398576123976120d6565b5b828203905092915050565b7f4d7573742073656e642045544800000000000000000000000000000000000000600082015250565b60006123d9600d83611765565b91506123e4826123a3565b602082019050919050565b60006020820190508181036000830152612408816123cc565b9050919050565b7f4d697373696f6e20616c726561647920636f6d706c6574656400000000000000600082015250565b6000612445601983611765565b91506124508261240f565b602082019050919050565b6000602082019050818103600083015261247481612438565b9050919050565b7f5265717565737420616c726561647920636f6d706c6574656400000000000000600082015250565b60006124b1601983611765565b91506124bc8261247b565b602082019050919050565b600060208201905081810360008301526124e0816124a4565b9050919050565b7f4e487b7100000000000000000000000000000000000000000000000000000000600052601260045260246000fd5b600061252182611676565b915061252c83611676565b92508261253c5761253b6124e7565b5b828204905092915050565b7f4e6f7420656e6f75676820617070726f76616c73000000000000000000000000600082015250565b600061257d601483611765565b915061258882612547565b602082019050919050565b600060208201905081810360008301526125ac81612570565b905091905056fea2646970667358221220df75a167792273d9b51da7c9534dd0ac60d902f281c1f3b665c631a3e872bae564736f6c63430008090033",
  "linkReferences": {},
  "deployedLinkReferences": {}
}