{
  "_format": "hh-sol-artifact-1",
  "contractName": "LunaFund",
  "sourceName": "contracts/LunaFund.sol",
  "abi": [
    {
      "inputs": [
        {
          "internalType": "uint256",
          "name": "_missionId",
          "type": "uint256"
        },
        {
          "internalType": "uint256",
          "name": "_requestIndex",
          "type": "uint256"
        }
      ],
      "name": "approveRequest",
      "outputs": [],
      "stateMutability": "nonpayable",
      "type": "function"
    },
    {
      "inputs": [
        {
          "internalType": "uint256",
          "name": "_missionId",
          "type": "uint256"
        }
      ],
      "name": "contribute",
      "outputs": [],
      "stateMutability": "payable",
      "type": "function"
    },
    {
      "inputs": [
        {
          "internalType": "string",
          "name": "_title",
          "type": "string"
        },
        {
          "internalType": "string",
          "name": "_description",
          "type": "string"
        },
        {
          "internalType": "uint256",
          "name": "_targetAmount",
          "type": "uint256"
        }
      ],
      "name": "createMission",
      "outputs": [],
      "stateMutability": "nonpayable",
      "type": "function"
    },
    {
      "inputs": [
        {
          "internalType": "uint256",
          "name": "_missionId",
          "type": "uint256"
        },
        {
          "internalType": "string",
          "name": "_description",
          "type": "string"
        },
        {
          "internalType": "uint256",
          "name": "_amount",
          "type": "uint256"
        },
        {
          "internalType": "address payable",
          "name": "_recipient",
          "type": "address"
        }
      ],
      "name": "createRequest",
      "outputs": [],
      "stateMutability": "nonpayable",
      "type": "function"
    },
    {
      "inputs": [
        {
          "internalType": "uint256",
          "name": "_missionId",
          "type": "uint256"
        },
        {
          "internalType": "uint256",
          "name": "_requestIndex",
          "type": "uint256"
        }
      ],
      "name": "finalizeRequest",
      "outputs": [],
      "stateMutability": "nonpayable",
      "type": "function"
    },
    {
      "inputs": [
        {
          "internalType": "uint256",
          "name": "_missionId",
          "type": "uint256"
        }
      ],
      "name": "getContributors",
      "outputs": [
        {
          "internalType": "address[]",
          "name": "",
          "type": "address[]"
        }
      ],
      "stateMutability": "view",
      "type": "function"
    },
    {
      "inputs": [
        {
          "internalType": "uint256",
          "name": "_missionId",
          "type": "uint256"
        }
      ],
      "name": "getMission",
      "outputs": [
        {
          "internalType": "address",
          "name": "creator",
          "type": "address"
        },
        {
          "internalType": "string",
          "name": "title",
          "type": "string"
        },
        {
          "internalType": "string",
          "name": "description",
          "type": "string"
        },
        {
          "internalType": "uint256",
          "name": "targetAmount",
          "type": "uint256"
        },
        {
          "internalType": "uint256",
          "name": "totalRaised",
          "type": "uint256"
        },
        {
          "internalType": "bool",
          "name": "completed",
          "type": "bool"
        }
      ],
      "stateMutability": "view",
      "type": "function"
    },
    {
      "inputs": [
        {
          "internalType": "uint256",
          "name": "_missionId",
          "type": "uint256"
        }
      ],
      "name": "getRequestsCount",
      "outputs": [
        {
          "internalType": "uint256",
          "name": "",
          "type": "uint256"
        }
      ],
      "stateMutability": "view",
      "type": "function"
    },
    {
      "inputs": [],
      "name": "missionCount",
      "outputs": [
        {
          "internalType": "uint256",
          "name": "",
          "type": "uint256"
        }
      ],
      "stateMutability": "view",
      "type": "function"
    },
    {
      "inputs": [
        {
          "internalType": "uint256",
          "name": "",
          "type": "uint256"
        }
      ],
      "name": "missions",
      "outputs": [
        {
          "internalType": "address",
          "name": "creator",
          "type": "address"
        },
        {
          "internalType": "string",
          "name": "title",
          "type": "string"
        },
        {
          "internalType": "string",
          "name": "description",
          "type": "string"
        },
        {
          "internalType": "uint256",
          "name": "targetAmount",
          "type": "uint256"
        },
        {
          "internalType": "uint256",
          "name": "totalRaised",
          "type": "uint256"
        },
        {
          "internalType": "bool",
          "name": "completed",
          "type": "bool"
        }
      ],
      "stateMutability": "view",
      "type": "function"
    }
  ],
  "bytecode": "0x608060405234801561001057600080fd5b50611ce2806100206000396000f3fe6080604052600436106100915760003560e01c80639a5e5b77116100595780639a5e5b7714610190578063c1cbbca7146101cd578063c8b9dd67146101e9578063eb2b94b514610212578063ff9c08fa1461025457610091565b80632c0a90a9146100965780632c8fe526146100bf5780633c1ab00f1461010157806354ffc90c1461013e5780637374a1bf14610167575b600080fd5b3480156100a257600080fd5b506100bd60048036038101906100b89190610f1b565b61027f565b005b3480156100cb57600080fd5b506100e660048036038101906100e19190610f5b565b61048d565b6040516100f896959493929190611083565b60405180910390f35b34801561010d57600080fd5b5061012860048036038101906101239190610f5b565b610606565b60405161013591906111b0565b60405180910390f35b34801561014a57600080fd5b5061016560048036038101906101609190611307565b6106aa565b005b34801561017357600080fd5b5061018e600480360381019061018991906113d0565b610769565b005b34801561019c57600080fd5b506101b760048036038101906101b29190610f5b565b610999565b6040516101c49190611453565b60405180910390f35b6101e760048036038101906101e29190610f5b565b6109bc565b005b3480156101f557600080fd5b50610210600480360381019061020b9190610f1b565b610bbb565b005b34801561021e57600080fd5b5061023960048036038101906102349190610f5b565b610d34565b60405161024b96959493929190611083565b60405180910390f35b34801561026057600080fd5b50610269610ecb565b6040516102769190611453565b60405180910390f35b600060016000848152602001908152602001600020905060008160080183815481106102ae576102ad61146e565b5b9060005260206000209060060201905060008260060160003373ffffffffffffffffffffffffffffffffffffffff1673ffffffffffffffffffffffffffffffffffffffff1681526020019081526020016000205411610342576040517f08c379a0000000000000000000000000000000000000000000000000000000008152600401610339906114e9565b60405180910390fd5b8060050160003373ffffffffffffffffffffffffffffffffffffffff1673ffffffffffffffffffffffffffffffffffffffff16815260200190815260200160002060009054906101000a900460ff16156103d1576040517f08c379a00000000000000000000000000000000000000000000000000000000081526004016103c890611555565b60405180910390fd5b60018160050160003373ffffffffffffffffffffffffffffffffffffffff1673ffffffffffffffffffffffffffffffffffffffff16815260200190815260200160002060006101000a81548160ff0219169083151502179055508160060160003373ffffffffffffffffffffffffffffffffffffffff1673ffffffffffffffffffffffffffffffffffffffff1681526020019081526020016000205481600301600082825461048091906115a4565b9250508190555050505050565b60016020528060005260406000206000915090508060000160009054906101000a900473ffffffffffffffffffffffffffffffffffffffff16908060010180546104d690611607565b80601f016020809104026020016040519081016040528092919081815260200182805461050290611607565b801561054f5780601f106105245761010080835404028352916020019161054f565b820191906000526020600020905b81548152906001019060200180831161053257829003601f168201915b50505050509080600201805461056490611607565b80601f016020809104026020016040519081016040528092919081815260200182805461059090611607565b80156105dd5780601f106105b2576101008083540402835291602001916105dd565b820191906000526020600020905b8154815290600101906020018083116105c057829003601f168201915b5050505050908060030154908060040154908060050160009054906101000a900460ff16905086565b60606001600083815260200190815260200160002060070180548060200260200160405190810160405280929190818152602001828054801561069e57602002820191906000526020600020905b8160009054906101000a900473ffffffffffffffffffffffffffffffffffffffff1673ffffffffffffffffffffffffffffffffffffffff1681526020019060010190808311610654575b50505050509050919050565b6000600160008060008154809291906106c290611638565b9190505581526020019081526020016000209050338160000160006101000a81548173ffffffffffffffffffffffffffffffffffffffff021916908373ffffffffffffffffffffffffffffffffffffffff1602179055508381600101908161072a919061182c565b508281600201908161073c919061182c565b5081816003018190555060008160050160006101000a81548160ff02191690831515021790555050505050565b60006001600086815260200190815260200160002090508060000160009054906101000a900473ffffffffffffffffffffffffffffffffffffffff1673ffffffffffffffffffffffffffffffffffffffff163373ffffffffffffffffffffffffffffffffffffffff1614610812576040517f08c379a000000000000000000000000000000000000000000000000000000000815260040161080990611970565b60405180910390fd5b8060050160009054906101000a900460ff1615610864576040517f08c379a000000000000000000000000000000000000000000000000000000000815260040161085b906119dc565b60405180910390fd5b80600401548311156108ab576040517f08c379a00000000000000000000000000000000000000000000000000000000081526004016108a290611a48565b60405180910390fd5b80600801600181600181540180825580915050039060005260206000209050506000600182600801805490506108e19190611a68565b905060008260080182815481106108fb576108fa61146e565b5b906000526020600020906006020190508581600001908161091c919061182c565b50848160010181905550838160020160006101000a81548173ffffffffffffffffffffffffffffffffffffffff021916908373ffffffffffffffffffffffffffffffffffffffff16021790555060008160040160006101000a81548160ff0219169083151502179055506000816003018190555050505050505050565b600060016000838152602001908152602001600020600801805490509050919050565b600034116109ff576040517f08c379a00000000000000000000000000000000000000000000000000000000081526004016109f690611ae8565b60405180910390fd5b60006001600083815260200190815260200160002090508060050160009054906101000a900460ff1615610a68576040517f08c379a0000000000000000000000000000000000000000000000000000000008152600401610a5f90611b54565b60405180910390fd5b60008160060160003373ffffffffffffffffffffffffffffffffffffffff1673ffffffffffffffffffffffffffffffffffffffff1681526020019081526020016000205403610b175780600701339080600181540180825580915050600190039060005260206000200160009091909190916101000a81548173ffffffffffffffffffffffffffffffffffffffff021916908373ffffffffffffffffffffffffffffffffffffffff1602179055505b348160060160003373ffffffffffffffffffffffffffffffffffffffff1673ffffffffffffffffffffffffffffffffffffffff1681526020019081526020016000206000828254610b6891906115a4565b9250508190555034816004016000828254610b8391906115a4565b925050819055508060030154816004015410610bb75760018160050160006101000a81548160ff0219169083151502179055505b5050565b60006001600084815260200190815260200160002090506000816008018381548110610bea57610be961146e565b5b906000526020600020906006020190508060040160009054906101000a900460ff1615610c4c576040517f08c379a0000000000000000000000000000000000000000000000000000000008152600401610c4390611bc0565b60405180910390fd5b60028260040154610c5d9190611c0f565b816003015411610ca2576040517f08c379a0000000000000000000000000000000000000000000000000000000008152600401610c9990611c8c565b60405180910390fd5b8060020160009054906101000a900473ffffffffffffffffffffffffffffffffffffffff1673ffffffffffffffffffffffffffffffffffffffff166108fc82600101549081150290604051600060405180830381858888f19350505050158015610d10573d6000803e3d6000fd5b5060018160040160006101000a81548160ff02191690831515021790555050505050565b60006060806000806000806001600089815260200190815260200160002090508060000160009054906101000a900473ffffffffffffffffffffffffffffffffffffffff168160010182600201836003015484600401548560050160009054906101000a900460ff16848054610da990611607565b80601f0160208091040260200160405190810160405280929190818152602001828054610dd590611607565b8015610e225780601f10610df757610100808354040283529160200191610e22565b820191906000526020600020905b815481529060010190602001808311610e0557829003601f168201915b50505050509450838054610e3590611607565b80601f0160208091040260200160405190810160405280929190818152602001828054610e6190611607565b8015610eae5780601f10610e8357610100808354040283529160200191610eae565b820191906000526020600020905b815481529060010190602001808311610e9157829003601f168201915b505050505093509650965096509650965096505091939550919395565b60005481565b6000604051905090565b600080fd5b600080fd5b6000819050919050565b610ef881610ee5565b8114610f0357600080fd5b50565b600081359050610f1581610eef565b92915050565b60008060408385031215610f3257610f31610edb565b5b6000610f4085828601610f06565b9250506020610f5185828601610f06565b9150509250929050565b600060208284031215610f7157610f70610edb565b5b6000610f7f84828501610f06565b91505092915050565b600073ffffffffffffffffffffffffffffffffffffffff82169050919050565b6000610fb382610f88565b9050919050565b610fc381610fa8565b82525050565b600081519050919050565b600082825260208201905092915050565b60005b83811015611003578082015181840152602081019050610fe8565b60008484015250505050565b6000601f19601f8301169050919050565b600061102b82610fc9565b6110358185610fd4565b9350611045818560208601610fe5565b61104e8161100f565b840191505092915050565b61106281610ee5565b82525050565b60008115159050919050565b61107d81611068565b82525050565b600060c0820190506110986000830189610fba565b81810360208301526110aa8188611020565b905081810360408301526110be8187611020565b90506110cd6060830186611059565b6110da6080830185611059565b6110e760a0830184611074565b979650505050505050565b600081519050919050565b600082825260208201905092915050565b6000819050602082019050919050565b61112781610fa8565b82525050565b6000611139838361111e565b60208301905092915050565b6000602082019050919050565b600061115d826110f2565b61116781856110fd565b93506111728361110e565b8060005b838110156111a357815161118a888261112d565b975061119583611145565b925050600181019050611176565b5085935050505092915050565b600060208201905081810360008301526111ca8184611152565b905092915050565b600080fd5b600080fd5b7f4e487b7100000000000000000000000000000000000000000000000000000000600052604160045260246000fd5b6112148261100f565b810181811067ffffffffffffffff82111715611233576112326111dc565b5b80604052505050565b6000611246610ed1565b9050611252828261120b565b919050565b600067ffffffffffffffff821115611272576112716111dc565b5b61127b8261100f565b9050602081019050919050565b82818337600083830152505050565b60006112aa6112a584611257565b61123c565b9050828152602081018484840111156112c6576112c56111d7565b5b6112d1848285611288565b509392505050565b600082601f8301126112ee576112ed6111d2565b5b81356112fe848260208601611297565b91505092915050565b6000806000606084860312156113205761131f610edb565b5b600084013567ffffffffffffffff81111561133e5761133d610ee0565b5b61134a868287016112d9565b935050602084013567ffffffffffffffff81111561136b5761136a610ee0565b5b611377868287016112d9565b925050604061138886828701610f06565b9150509250925092565b600061139d82610f88565b9050919050565b6113ad81611392565b81146113b857600080fd5b50565b6000813590506113ca816113a4565b92915050565b600080600080608085870312156113ea576113e9610edb565b5b60006113f887828801610f06565b945050602085013567ffffffffffffffff81111561141957611418610ee0565b5b611425878288016112d9565b935050604061143687828801610f06565b9250506060611447878288016113bb565b91505092959194509250565b60006020820190506114686000830184611059565b92915050565b7f4e487b7100000000000000000000000000000000000000000000000000000000600052603260045260246000fd5b7f4f6e6c7920636f6e7472696275746f72732063616e20766f7465000000000000600082015250565b60006114d3601a83610fd4565b91506114de8261149d565b602082019050919050565b60006020820190508181036000830152611502816114c6565b9050919050565b7f416c726561647920766f74656400000000000000000000000000000000000000600082015250565b600061153f600d83610fd4565b915061154a82611509565b602082019050919050565b6000602082019050818103600083015261156e81611532565b9050919050565b7f4e487b7100000000000000000000000000000000000000000000000000000000600052601160045260246000fd5b60006115af82610ee5565b91506115ba83610ee5565b92508282019050808211156115d2576115d1611575565b5b92915050565b7f4e487b7100000000000000000000000000000000000000000000000000000000600052602260045260246000fd5b6000600282049050600182168061161f57607f821691505b602082108103611632576116316115d8565b5b50919050565b600061164382610ee5565b91507fffffffffffffffffffffffffffffffffffffffffffffffffffffffffffffffff820361167557611674611575565b5b600182019050919050565b60008190508160005260206000209050919050565b60006020601f8301049050919050565b600082821b905092915050565b6000600883026116e27fffffffffffffffffffffffffffffffffffffffffffffffffffffffffffffffff826116a5565b6116ec86836116a5565b95508019841693508086168417925050509392505050565b6000819050919050565b600061172961172461171f84610ee5565b611704565b610ee5565b9050919050565b6000819050919050565b6117438361170e565b61175761174f82611730565b8484546116b2565b825550505050565b600090565b61176c61175f565b61177781848461173a565b505050565b5b8181101561179b57611790600082611764565b60018101905061177d565b5050565b601f8211156117e0576117b181611680565b6117ba84611695565b810160208510156117c9578190505b6117dd6117d585611695565b83018261177c565b50505b505050565b600082821c905092915050565b6000611803600019846008026117e5565b1980831691505092915050565b600061181c83836117f2565b9150826002028217905092915050565b61183582610fc9565b67ffffffffffffffff81111561184e5761184d6111dc565b5b6118588254611607565b61186382828561179f565b600060209050601f8311600181146118965760008415611884578287015190505b61188e8582611810565b8655506118f6565b601f1984166118a486611680565b60005b828110156118cc578489015182556001820191506020850194506020810190506118a7565b868310156118e957848901516118e5601f8916826117f2565b8355505b6001600288020188555050505b505050505050565b7f4f6e6c79206d697373696f6e2063726561746f722063616e206372656174652060008201527f7265717565737400000000000000000000000000000000000000000000000000602082015250565b600061195a602783610fd4565b9150611965826118fe565b604082019050919050565b600060208201905081810360008301526119898161194d565b9050919050565b7f4d697373696f6e2068617320656e646564000000000000000000000000000000600082015250565b60006119c6601183610fd4565b91506119d182611990565b602082019050919050565b600060208201905081810360008301526119f5816119b9565b9050919050565b7f416d6f756e7420657863656564732066756e6473000000000000000000000000600082015250565b6000611a32601483610fd4565b9150611a3d826119fc565b602082019050919050565b60006020820190508181036000830152611a6181611a25565b9050919050565b6000611a7382610ee5565b9150611a7e83610ee5565b9250828203905081811115611a9657611a95611575565b5b92915050565b7f4d7573742073656e642045544800000000000000000000000000000000000000600082015250565b6000611ad2600d83610fd4565b9150611add82611a9c565b602082019050919050565b60006020820190508181036000830152611b0181611ac5565b9050919050565b7f4d697373696f6e20616c726561647920636f6d706c6574656400000000000000600082015250565b6000611b3e601983610fd4565b9150611b4982611b08565b602082019050919050565b60006020820190508181036000830152611b6d81611b31565b9050919050565b7f5265717565737420616c726561647920636f6d706c6574656400000000000000600082015250565b6000611baa601983610fd4565b9150611bb582611b74565b602082019050919050565b60006020820190508181036000830152611bd981611b9d565b9050919050565b7f4e487b7100000000000000000000000000000000000000000000000000000000600052601260045260246000fd5b6000611c1a82610ee5565b9150611c2583610ee5565b925082611c3557611c34611be0565b5b828204905092915050565b7f4e6f7420656e6f75676820617070726f76616c73000000000000000000000000600082015250565b6000611c76601483610fd4565b9150611c8182611c40565b602082019050919050565b60006020820190508181036000830152611ca581611c69565b905091905056fea26469706673582212203c88ad8a3f49fbd6846e744fb722057f5790af396a13f675bb39fa93af67f57364736f6c63430008120033",
  "linkReferences": {},
  "deployedLinkReferences": {}
}